:107000000C9434380C9451380C9451380C945138F9
:107010000C9451380C9451380C9451380C945138CC
:107020000C9451380C9451380C9451380C945138BC
:107030000C9451380C9451380C9451380C945138AC
:107040000C9451380C9451380C9451380C9451389C
:107050000C9451380C9451380C9451380C9451388C
:107060000C9451380C94513811241FBECFEFD8E046
:10707000DEBFCDBF13E0A0E0B1E0E0E8FCE702C076
:1070800005900D92AE3BB107D9F714E0AEEBB3E03B
:1070900001C01D92A53AB107E1F70E94DC3D0C94B6
:1070A0003E3E0C940038F89414BEE0E6F0E0808197
:1070B00088618083108208951092C1001092C200EE
:1070C0001092C5001092C4001092810010927A00B4
:1070D00010927C00109285001092840088E18093C9
:1070E000600088E080936000FFCF1092C50010928E
:1070F000C4001092C1001092C20010928100109240
:107100007A0010927C0010928500109284000895FD
:10711000E1E8F0E080818560808310928500109224
:107120008400089590EC90937C0090917C00982BC3
:1071300090937C0087E880937A0080E29EE4019738
:10714000F1F780917A00806480937A0080917A00D0
:1071500084FFFCCF809178009091790020917A0093
:10716000206120937A00BC0180E090E008959B01AB
:10717000AC01F89414BE8091600088618093600037
:107180001092600060E271EA87E090E00E941C3E8D
:10719000215030403093C5002093C40088E1809393
:1071A000C10086E08093C200809181008560809359
:1071B0008100109285001092840088EE93E028EC04
:1071C00030E0F9013197F1F70197D9F70895982F39
:1071D0008091C00085FFFCCF9093C60008950F9367
:1071E0001F93CF93DF93DA010FB7F894F999FECF8D
:1071F000AB0183E0FB0180935700E89507B600FCE4
:10720000FDCFFA0111E0BA0160587F4F8C911196C1
:107210003C91119720E0E901C80FD11D12960E0193
:1072200010935700E89511243296E617F70771F787
:1072300085E0FA0180935700E89507B600FCFDCF82
:1072400081E180935700E8950FBFDF91CF911F91A7
:107250000F910895282F8091C00085FFFCCF8CE707
:107260008093C60090E03DE307C08091C00085FF99
:10727000FCCF3093C6009F5F9217B8F38091C00097
:1072800085FFFCCF8CE78093C6000895EF92FF92B4
:107290000F931F93DF93CF93CDB7DEB7C058D04085
:1072A0000FB6F894DEBF0FBECDBF062F90E09E0153
:1072B0002F5F3F4F4FEFF901E90FF11D40839F5FB3
:1072C0009038C9F7182F7E010894E11CF11C0FC0FB
:1072D000612F70E07695762F6627779567958827DA
:1072E00077FD8095982FA7010E94EF381F5F101738
:1072F00078F3C058DF4F0FB6F894DEBF0FBECDBF96
:10730000CF91DF911F910F91FF90EF900895F99920
:10731000FECF92BD81BD60BD84E08FBBF99A089518
:10732000F999FECF92BD81BDF89A80B5089590E09D
:1073300020E43CE90BC0529A5A9AF9013197F1F7CF
:107340005A985298F9013197F1F79F5F981798F37F
:1073500008958F929F92AF92BF92CF92DF92EF9259
:10736000FF920F931F93DF93CF93CDB7DEB78C01BE
:10737000ADB6BEB6009709F454C09DB68EB6EE24E5
:107380006AE070E00E94083ECB01E394611571054C
:10739000B9F78E2D90E02DB73EB7281B390B0FB6ED
:1073A000F8943EBF0FBE2DBFCDB6DEB60894C11C0B
:1073B000D11C9C0121503040F601E20FF31FF02E4A
:1073C000412F13C08F2D942F6AE070E00E94083E79
:1073D000805D80838F2D942F6AE070E00E94083ECC
:1073E000F62E472F2150304031978FEF2F3F38072F
:1073F00049F790E00BC0F601E90FF11DE0818091A3
:10740000C00085FFFCCFE093C6009F5F9E1598F3F8
:10741000892D982D9C010FB6F8943EBF0FBE2DBF4D
:1074200007C08091C00085FFFCCF80E38093C60039
:107430000FB6F894BEBE0FBEADBECF91DF911F91C7
:107440000F91FF90EF90DF90CF90BF90AF909F9003
:107450008F900895CF93DF93EC0164E670E00E9473
:10746000083ECB010E94A9398091C00085FFFCCF66
:107470008EE28093C600CE0164E670E00E94083E72
:10748000982F8A3038F48091C00085FFFCCF80E3CC
:107490008093C600892F90E00E94A939DF91CF9197
:1074A00008959C01DC010D900020E9F71197A81BBD
:1074B000B90B90E00AC0E20FF31F40818091C00039
:1074C00085FFFCCF4093C6009F5FE92FF0E0EA17ED
:1074D000FB0788F3089510928500109284001DC068
:1074E000809184009091850081589542B0F0809100
:1074F000D003813061F480E060EE0E94463980E084
:1075000091E00E94513A83E191E00E94513A5A98E9
:1075100052980E9475380C9400008091C00087FF3B
:10752000DFCF8091C6000895DF92EF92FF920F9314
:107530001F93CF93DF93F999FECF8FEF93E092BD26
:1075400081BDF89A80B590E09093AB038093AA0335
:107550008F3F910511F41092BD0387E00E9492388D
:1075600087E00E949238DD24E090D503F090D603A6
:107570000091D7031091D80387E00E9492386E0DD6
:107580007F1D801F911F6093D5037093D603809356
:10759000D7039093D803D39420E1D21629F72CE295
:1075A00031E040E050E00E94E93D2091AA03309193
:1075B000AB03442737FD4095542F0E941C3E74E0D6
:1075C00056954795379527957A95D1F72093C4031B
:1075D0003093C5034093C6035093C7031092D5035D
:1075E0001092D6031092D7031092D80386E00E941F
:1075F000923886E00E949238DD24E090D503F09026
:10760000D6030091D7031091D80386E00E949238E8
:107610006E0D7F1D801F911F6093D5037093D6035D
:107620008093D7039093D803D394E0E1DE1629F733
:107630002CE231E040E050E00E94E93D2091AA03B5
:107640003091AB03442737FD4095542F0E941C3ED8
:1076500064E056954795379527956A95D1F720931D
:10766000C8033093C9034093CA035093CB031092CD
:10767000D5031092D6031092D7031092D80388E056
:107680000E94923888E00E94923888E00E949238E6
:107690002EE033E040E050E00E94E93D28EE33E088
:1076A00040E050E00E941C3E2A5F30404040504085
:1076B0002093CC033093CD034093CE035093CF035C
:1076C0002BED33E0F999FECF32BD21BDF89A80B59C
:1076D000F901EE55FF4F80838F3F11F41092BC03E8
:1076E0002F5F3F4FF3E0233E3F0761F723EE33E088
:1076F000F999FECF32BD21BDF89A80B5F901EE5659
:10770000FF4F80838F3F11F41092BC032F5F3F4FD8
:1077100083E02B3E380761F781E08093D0038091AE
:107720009504803E48F081E291E00E94513A0E9427
:1077300075380C9400000BC0882349F460EE0E9459
:1077400046398AE391E00E94513A0E945C3883E511
:1077500091E00E94513A87E591E00E94513A8BE70F
:1077600091E00E94513A87E591E00E94513A87E901
:1077700091E00E94513A8AEB91E00E94513A82E1F5
:1077800090E00E94A9398091C00085FFFCCF8FE274
:107790008093C60087E090E00E94A9398091C000E4
:1077A00085FFFCCF8FE28093C60083E190E00E94CA
:1077B000A9398091C00085FFFCCF8AE08093C60084
:1077C00082ED91E00E94513A84E090E00E94A93954
:1077D0008091C00085FFFCCF8EE28093C60083E2DB
:1077E00090E00E94A9398AEE91E00E94513A8CEE15
:1077F00091E00E94513A80E09BE40E94A93984E024
:1078000092E00E94513A8AE092E00E94513A8091BF
:10781000BD03882319F482E292E008C08091C4037A
:107820009091C5030E942A3A87E292E00E94513A61
:107830008BE292E00E94513A8091BD03882319F4B3
:1078400082E292E008C08091C8039091C9030E942F
:107850002A3A87E292E00E94513A83E492E00E9441
:10786000513A8091CC039091CD030E94A9398BE5C8
:1078700092E00E94513A8FE592E00E94513A809145
:10788000BC03882329F487E792E00E94513A0EC096
:10789000EDE7F4E090818091C00085FFFCCF9093EC
:1078A000C600319624E0E538F207A1F78091C000C8
:1078B00085FFFCCF8AE08093C6008BE792E00E94B0
:1078C000513A8091BC03882329F487E792E00E9413
:1078D000513A0EC0E5E7F4E090818091C00085FF49
:1078E000FCCF9093C600319684E0ED37F807A1F7FE
:1078F0008091C00085FFFCCF8AE08093C60083E9B9
:1079000092E00E94513A8091950490E00E94A9393A
:107910008BEA92E00E94513A8BE792E00E94513A42
:107920008091950490E09695982F88279795879554
:107930000E94A93983EB92E00E94513A8091C803DA
:107940009091C903A091CA03B091CB038C5291408E
:10795000A040B04040F48BEB92E00E94513A8DED94
:1079600092E00E94513A8DEF92E00E94513A80914C
:1079700095040E942A398CE193E00E94513A1092BA
:10798000D1031092D2031092D3031092D40305E8CE
:1079900014E0F801119224E0E539F207D9F780915B
:1079A000C00085FFFCCF8CE18093C600EE242DE360
:1079B000D22E31C00E946B3A89932091D10330912D
:1079C000D2034091D3035091D403280F311D411DA0
:1079D000511D2093D1033093D2034093D30350938E
:1079E000D40384E0CD35D80729F76E2D70E0769565
:1079F000762F662777956795882777FD8095982F4E
:107A00004DED53E00E94EF388091C00085FFFCCF20
:107A1000D092C600E39480919504E81618F4CDED59
:107A2000D3E0C8CFCDE5D4E00E946B3A8993E4E07F
:107A3000C537DE07C9F70E946B3AF80181938F01C1
:107A4000F4E005391F07B9F78FE193E00E94513A3E
:107A5000C0E0D0E0FE01E455FC4FDE01AB57BB4F68
:107A600090818C91981781F080E060EE0E944639F9
:107A700082E293E00E94513A83E393E00E94513AFC
:107A80000E9475380C9400002196C031D10511F781
:107A90008091950460EE0E944639C4EDD3E0FE016A
:107AA000E757FF4FCE0160810E948739219623E07E
:107AB000CB3ED207A1F79091D1038091C00085FF02
:107AC000FCCF9F779093C6008BE493E00E94513ADD
:107AD00086E593E00E94513A8CE693E00E94513A89
:107AE00084E10E9497390E9475380C940000DF9160
:107AF000CF911F910F91FF90EF90DF900895FF922B
:107B00000F931F93CF93DF93529A5A9A1092D003F8
:107B10008091C00085FFFCCF8BE18093C6000E945E
:107B20006B3A8831E1F700E010E0E9E1FE2EC5E8AC
:107B3000D4E00E946B3A899384E0C53AD807C9F72C
:107B40000F5F1F4F0630110544F05A98529882E992
:107B500093E00E94513A0E945C3820E030E0F90145
:107B6000E455FC4FD901AB57BB4F90818C919817CE
:107B700029F08091C00085FFFCCF10C02F5F3F4FE0
:107B80002031310561F790919504E5E9F4E08081B9
:107B9000981739F08091C00085FFFCCFF092C600A5
:107BA000C6CF319684E0E53AF80789F7DF91CF91A7
:107BB0001F910F91FF90089560E07BE480E090E0DA
:107BC0000E94B7380E947F3D0E94943A80E090E086
:107BD0000895629FD001739FF001829FE00DF11D17
:107BE000649FE00DF11D929FF00D839FF00D749F37
:107BF000F00D659FF00D9927729FB00DE11DF91FE3
:107C0000639FB00DE11DF91FBD01CF01112408953F
:107C1000AA1BBB1B51E107C0AA1FBB1FA617B707B2
:107C200010F0A61BB70B881F991F5A95A9F78095CE
:107C30009095BC01CD010895A1E21A2EAA1BBB1B91
:107C4000FD010DC0AA1FBB1FEE1FFF1FA217B30728
:107C5000E407F50720F0A21BB30BE40BF50B661F3E
:107C6000771F881F991F1A9469F760957095809502
:107C700090959B01AC01BD01CF010895F894FFCF11
:107C80000A4461746120696E636F6D706C65746520
:107C9000210A004368697020457261736564210A96
:107CA000000A4D617820646174612073697A6520EF
:107CB00063726F73736564210A000A4368697020F8
:107CC0006572617365207375636365737366756C44
:107CD000210A000A0A0A002D2D2D2D2D2D2D2D2DC6
:107CE0002D2D2D2D2D2D2D2D2D2D2D2D2D2D2D2DC4
:107CF0002D2D2D2D2D2D2D2D2D0A00202020202045
:107D0000202020415652204F544120424F4F544C86
:107D10004F414445520A00417574686F722020201B
:107D20002020202020202020202020203A204D46E6
:107D3000495F3133323039370A00426F6F746C6FEC
:107D40006164657220637265617465642020203A05
:107D50002000426F6F746C6F61646572207665728B
:107D600073696F6E2020203A20000A00554152545A
:107D7000204241554420726174652020202020203B
:107D8000203A2000206270730A00537570706C797D
:107D900020766F6C74616765202020202020203AB7
:107DA00020004E2F410A0020560A004350552076ED
:107DB0006F6C746167652020202020202020202007
:107DC0003A20004350552074656D7065726174757A
:107DD00072652020202020203A200027430A004CF2
:107DE0006173742070726F6772616D6D65642020BD
:107DF000202020203A20004E2F410020202020204B
:107E00002020202020202020202020202020202072
:107E100020200043757272656E746C7920777269E8
:107E200074696E67202020203A2000207061676509
:107E3000730A002062797465730A000A4350552062
:107E4000766F6C746167652069732062656C6F770B
:107E50002073616665207A6F6E65210A004E6F742B
:107E6000207265636F6D6D656E64656420746F204C
:107E7000656E74657220444655210A0A005772697E
:107E800074696E67206E6577206669726D776172BE
:107E90006520696D6167652E2E2E0A000A7C007CC4
:107EA0000A00436865636B73756D204572726F726B
:107EB000210A004669726D77617265207772697474
:107EC00065206661696C6564210A000A5375636305
:107ED000657373210A005374617274696E6720417F
:107EE00070706C69636174696F6E0A002D2D2D2DA1
:107EF0002D2D2D2D2D2D2D2D2D2D2D2D2D2D2D2DB2
:107F00002D2D2D2D2D2D2D2D2D2D2D2D2D2D0A0AE7
:107F10000A000A41757468656E7469636174696FFB
:107F20006E204572726F72210A00A7003031323321
:0E7F3000343536373839414243444546010165
:040000030000700089
:00000001FF
